{
  "contractName": "Papers",
  "abi": [
    {
      "constant": true,
      "inputs": [
        {
          "name": "_index",
          "type": "uint256"
        }
      ],
      "name": "getPaper",
      "outputs": [
        {
          "name": "title",
          "type": "string"
        },
        {
          "name": "owner",
          "type": "address"
        }
      ],
      "payable": false,
      "stateMutability": "view",
      "type": "function",
      "signature": "0x07993f04"
    },
    {
      "constant": true,
      "inputs": [
        {
          "name": "_title",
          "type": "string"
        }
      ],
      "name": "lenPaper",
      "outputs": [
        {
          "name": "len",
          "type": "uint256"
        }
      ],
      "payable": false,
      "stateMutability": "view",
      "type": "function",
      "signature": "0xde3c29aa"
    },
    {
      "constant": false,
      "inputs": [
        {
          "name": "_title",
          "type": "string"
        }
      ],
      "name": "setTitle",
      "outputs": [],
      "payable": false,
      "stateMutability": "nonpayable",
      "type": "function",
      "signature": "0x72910be0"
    },
    {
      "constant": false,
      "inputs": [
        {
          "name": "_title",
          "type": "string"
        }
      ],
      "name": "_createPaper",
      "outputs": [],
      "payable": false,
      "stateMutability": "nonpayable",
      "type": "function",
      "signature": "0xc58b95b7"
    }
  ],
  "bytecode": "0x608060405234801561001057600080fd5b50610768806100206000396000f3fe608060405260043610610062576000357c0100000000000000000000000000000000000000000000000000000000900463ffffffff16806307993f041461006757806372910be01461014e578063a2311b0f14610216578063c58b95b714610241575b600080fd5b34801561007357600080fd5b506100a06004803603602081101561008a57600080fd5b8101908080359060200190929190505050610309565b60405180806020018373ffffffffffffffffffffffffffffffffffffffff1673ffffffffffffffffffffffffffffffffffffffff168152602001828103825284818151815260200191508051906020019080838360005b838110156101125780820151818401526020810190506100f7565b50505050905090810190601f16801561013f5780820380516001836020036101000a031916815260200191505b50935050505060405180910390f35b34801561015a57600080fd5b506102146004803603602081101561017157600080fd5b810190808035906020019064010000000081111561018e57600080fd5b8201836020820111156101a057600080fd5b803590602001918460018302840111640100000000831117156101c257600080fd5b91908080601f016020809104026020016040519081016040528093929190818152602001838380828437600081840152601f19601f820116905080830192505050505050509192919290505050610413565b005b34801561022257600080fd5b5061022b61049a565b6040518082815260200191505060405180910390f35b34801561024d57600080fd5b506103076004803603602081101561026457600080fd5b810190808035906020019064010000000081111561028157600080fd5b82018360208201111561029357600080fd5b803590602001918460018302840111640100000000831117156102b557600080fd5b91908080601f016020809104026020016040519081016040528093929190818152602001838380828437600081840152601f19601f8201169050808301925050505050505091929192905050506104a7565b005b6060600060018381548110151561031c57fe5b906000526020600020906002020160000160018481548110151561033c57fe5b906000526020600020906002020160010160009054906101000a900473ffffffffffffffffffffffffffffffffffffffff16818054600181600116156101000203166002900480601f0160208091040260200160405190810160405280929190818152602001828054600181600116156101000203166002900480156104035780601f106103d857610100808354040283529160200191610403565b820191906000526020600020905b8154815290600101906020018083116103e657829003601f168201915b5050505050915091509150915091565b60016000826040518082805190602001908083835b60208310151561044d5780518252602082019150602081019050602083039250610428565b6001836020036101000a038019825116818451168082178552505050505050905001915050908152602001604051809103902060006101000a81548160ff02191690831515021790555050565b6000600180549050905090565b6104b081610616565b15151561054b576040517f08c379a000000000000000000000000000000000000000000000000000000000815260040180806020018281038252602d8152602001807f4120706170657220776974682074686973207469746c6520616c72656164792081526020017f6578697374732c20647564652e0000000000000000000000000000000000000081525060400191505060405180910390fd5b61055481610413565b600160408051908101604052808381526020013373ffffffffffffffffffffffffffffffffffffffff168152509080600181540180825580915050906001820390600052602060002090600202016000909192909190915060008201518160000190805190602001906105c8929190610697565b5060208201518160010160006101000a81548173ffffffffffffffffffffffffffffffffffffffff021916908373ffffffffffffffffffffffffffffffffffffffff16021790555050505050565b600080826040518082805190602001908083835b60208310151561064f578051825260208201915060208101905060208303925061062a565b6001836020036101000a038019825116818451168082178552505050505050905001915050908152602001604051809103902060009054906101000a900460ff169050919050565b828054600181600116156101000203166002900490600052602060002090601f016020900481019282601f106106d857805160ff1916838001178555610706565b82800160010185558215610706579182015b828111156107055782518255916020019190600101906106ea565b5b5090506107139190610717565b5090565b61073991905b8082111561073557600081600090555060010161071d565b5090565b9056fea165627a7a7230582058a7c3f99d0e9a5aeebadfb552da6e1ecdcefb4ffc87b6be3d9c076ca7f76a2e0029",
  "source": "pragma solidity >=0.4.21 <0.6.0;\n\n/// @title Researchain Paper contract\ncontract Papers {\n    \n    mapping (string => bool) Titles;\n    \n    // This represents a single paper\n    struct Paper {\n        string title;\n        address owner;\n    }\n    \n    Paper[] private papers;\n\n    function getPaper(uint _index) public view returns (string memory title, address owner) {\n        return (papers[_index].title, papers[_index].owner);\n    }\n\n    function lenPaper() public view returns(uint len){\n\treturn (papers.length);\n    }\n    function setTitle(string memory _title) public {\n        Titles[_title] = true;\n    }\n    \n    function titleExists(string memory _title) private returns (bool) {\n        return Titles[_title];\n    }\n    \n    function _createPaper(string memory _title) public {\n        require(!titleExists(_title), \"A paper with this title already exists, dude.\");\n        setTitle(_title);\n        papers.push(Paper(_title, msg.sender));\n    }\n}\n",
  "sourcePath": "/home/sara/Cardano-BLKCHN19/researchain/researchain-back/contracts/Papers.sol",
  "compiler": {
    "name": "solc",
    "version": "0.5.0+commit.1d4f565a.Emscripten.clang"
  },
  "schemaVersion": "3.0.8",
  "updatedAt": "2019-06-15T11:59:17.222Z",
  "devdoc": {
    "methods": {},
    "title": "Researchain Paper contract"
  },
  "userdoc": {
    "methods": {}
  }
}