{
  "contractName": "Papers",
  "abi": [
    {
      "constant": true,
      "inputs": [
        {
          "name": "",
          "type": "uint256"
        }
      ],
      "name": "papers",
      "outputs": [
        {
          "name": "title",
          "type": "string"
        },
        {
          "name": "owner",
          "type": "address"
        }
      ],
      "payable": false,
      "stateMutability": "view",
      "type": "function"
    },
    {
      "constant": false,
      "inputs": [
        {
          "name": "_title",
          "type": "string"
        }
      ],
      "name": "setTitle",
      "outputs": [],
      "payable": false,
      "stateMutability": "nonpayable",
      "type": "function"
    },
    {
      "constant": false,
      "inputs": [
        {
          "name": "_title",
          "type": "string"
        }
      ],
      "name": "_createPaper",
      "outputs": [],
      "payable": false,
      "stateMutability": "nonpayable",
      "type": "function"
    }
  ],
  "bytecode": "0x608060405234801561001057600080fd5b50610706806100206000396000f3fe608060405260043610610057576000357c0100000000000000000000000000000000000000000000000000000000900463ffffffff1680635e775a271461005c57806372910be014610143578063c58b95b71461020b575b600080fd5b34801561006857600080fd5b506100956004803603602081101561007f57600080fd5b81019080803590602001909291905050506102d3565b60405180806020018373ffffffffffffffffffffffffffffffffffffffff1673ffffffffffffffffffffffffffffffffffffffff168152602001828103825284818151815260200191508051906020019080838360005b838110156101075780820151818401526020810190506100ec565b50505050905090810190601f1680156101345780820380516001836020036101000a031916815260200191505b50935050505060405180910390f35b34801561014f57600080fd5b506102096004803603602081101561016657600080fd5b810190808035906020019064010000000081111561018357600080fd5b82018360208201111561019557600080fd5b803590602001918460018302840111640100000000831117156101b757600080fd5b91908080601f016020809104026020016040519081016040528093929190818152602001838380828437600081840152601f19601f8201169050808301925050505050505091929192905050506103be565b005b34801561021757600080fd5b506102d16004803603602081101561022e57600080fd5b810190808035906020019064010000000081111561024b57600080fd5b82018360208201111561025d57600080fd5b8035906020019184600183028401116401000000008311171561027f57600080fd5b91908080601f016020809104026020016040519081016040528093929190818152602001838380828437600081840152601f19601f820116905080830192505050505050509192919290505050610445565b005b6001818154811015156102e257fe5b9060005260206000209060020201600091509050806000018054600181600116156101000203166002900480601f01602080910402602001604051908101604052809291908181526020018280546001816001161561010002031660029004801561038e5780601f106103635761010080835404028352916020019161038e565b820191906000526020600020905b81548152906001019060200180831161037157829003601f168201915b5050505050908060010160009054906101000a900473ffffffffffffffffffffffffffffffffffffffff16905082565b60016000826040518082805190602001908083835b6020831015156103f857805182526020820191506020810190506020830392506103d3565b6001836020036101000a038019825116818451168082178552505050505050905001915050908152602001604051809103902060006101000a81548160ff02191690831515021790555050565b61044e816105b4565b1515156104e9576040517f08c379a000000000000000000000000000000000000000000000000000000000815260040180806020018281038252602d8152602001807f4120706170657220776974682074686973207469746c6520616c72656164792081526020017f6578697374732c20647564652e0000000000000000000000000000000000000081525060400191505060405180910390fd5b6104f2816103be565b600160408051908101604052808381526020013373ffffffffffffffffffffffffffffffffffffffff16815250908060018154018082558091505090600182039060005260206000209060020201600090919290919091506000820151816000019080519060200190610566929190610635565b5060208201518160010160006101000a81548173ffffffffffffffffffffffffffffffffffffffff021916908373ffffffffffffffffffffffffffffffffffffffff16021790555050505050565b600080826040518082805190602001908083835b6020831015156105ed57805182526020820191506020810190506020830392506105c8565b6001836020036101000a038019825116818451168082178552505050505050905001915050908152602001604051809103902060009054906101000a900460ff169050919050565b828054600181600116156101000203166002900490600052602060002090601f016020900481019282601f1061067657805160ff19168380011785556106a4565b828001600101855582156106a4579182015b828111156106a3578251825591602001919060010190610688565b5b5090506106b191906106b5565b5090565b6106d791905b808211156106d35760008160009055506001016106bb565b5090565b9056fea165627a7a723058201f0630eaff65b1821b5282982190c0b46acb0be46ebbfac0c1798ef274efc1460029",
  "source": "pragma solidity >=0.4.21 <0.6.0;\n\n/// @title Researchain Paper contract\ncontract Papers {\n    \n    mapping (string => bool) Titles;\n    \n    // This represents a single paper\n    struct Paper {\n        string title;\n        address owner;\n    }\n    \n    Paper[] public papers;\n\n    \n    function setTitle(string memory _title) public {\n        Titles[_title] = true;\n    }\n    \n    function titleExists(string memory _title) private returns (bool) {\n        return Titles[_title];\n    }\n    \n    function _createPaper(string memory _title) public {\n        require(!titleExists(_title), \"A paper with this title already exists, dude.\");\n        setTitle(_title);\n        papers.push(Paper(_title, msg.sender));\n    }\n}\n",
  "sourcePath": "/Users/florens/BLKCHN/Cardano-BLKCHN19/researchain/researchain-back/contracts/Papers.sol",
  "compiler": {
    "name": "solc",
    "version": "0.5.0+commit.1d4f565a.Emscripten.clang"
  },
  "schemaVersion": "3.0.9",
  "updatedAt": "2019-05-26T16:32:54.840Z",
  "devdoc": {
    "methods": {},
    "title": "Researchain Paper contract"
  },
  "userdoc": {
    "methods": {}
  }
}