{
  "contractName": "Papers",
  "abi": [
    {
      "constant": true,
      "inputs": [
        {
          "name": "_index",
          "type": "uint256"
        }
      ],
      "name": "getPaper",
      "outputs": [
        {
          "name": "title",
          "type": "string"
        },
        {
          "name": "owner",
          "type": "address"
        }
      ],
      "payable": false,
      "stateMutability": "view",
      "type": "function"
    },
    {
      "constant": false,
      "inputs": [
        {
          "name": "_title",
          "type": "string"
        }
      ],
      "name": "setTitle",
      "outputs": [],
      "payable": false,
      "stateMutability": "nonpayable",
      "type": "function"
    },
    {
      "constant": false,
      "inputs": [
        {
          "name": "_title",
          "type": "string"
        }
      ],
      "name": "_createPaper",
      "outputs": [],
      "payable": false,
      "stateMutability": "nonpayable",
      "type": "function"
    }
  ],
  "bytecode": "0x608060405234801561001057600080fd5b50610725806100206000396000f3fe608060405260043610610057576000357c0100000000000000000000000000000000000000000000000000000000900463ffffffff16806307993f041461005c57806372910be014610143578063c58b95b71461020b575b600080fd5b34801561006857600080fd5b506100956004803603602081101561007f57600080fd5b81019080803590602001909291905050506102d3565b60405180806020018373ffffffffffffffffffffffffffffffffffffffff1673ffffffffffffffffffffffffffffffffffffffff168152602001828103825284818151815260200191508051906020019080838360005b838110156101075780820151818401526020810190506100ec565b50505050905090810190601f1680156101345780820380516001836020036101000a031916815260200191505b50935050505060405180910390f35b34801561014f57600080fd5b506102096004803603602081101561016657600080fd5b810190808035906020019064010000000081111561018357600080fd5b82018360208201111561019557600080fd5b803590602001918460018302840111640100000000831117156101b757600080fd5b91908080601f016020809104026020016040519081016040528093929190818152602001838380828437600081840152601f19601f8201169050808301925050505050505091929192905050506103dd565b005b34801561021757600080fd5b506102d16004803603602081101561022e57600080fd5b810190808035906020019064010000000081111561024b57600080fd5b82018360208201111561025d57600080fd5b8035906020019184600183028401116401000000008311171561027f57600080fd5b91908080601f016020809104026020016040519081016040528093929190818152602001838380828437600081840152601f19601f820116905080830192505050505050509192919290505050610464565b005b606060006001838154811015156102e657fe5b906000526020600020906002020160000160018481548110151561030657fe5b906000526020600020906002020160010160009054906101000a900473ffffffffffffffffffffffffffffffffffffffff16818054600181600116156101000203166002900480601f0160208091040260200160405190810160405280929190818152602001828054600181600116156101000203166002900480156103cd5780601f106103a2576101008083540402835291602001916103cd565b820191906000526020600020905b8154815290600101906020018083116103b057829003601f168201915b5050505050915091509150915091565b60016000826040518082805190602001908083835b60208310151561041757805182526020820191506020810190506020830392506103f2565b6001836020036101000a038019825116818451168082178552505050505050905001915050908152602001604051809103902060006101000a81548160ff02191690831515021790555050565b61046d816105d3565b151515610508576040517f08c379a000000000000000000000000000000000000000000000000000000000815260040180806020018281038252602d8152602001807f4120706170657220776974682074686973207469746c6520616c72656164792081526020017f6578697374732c20647564652e0000000000000000000000000000000000000081525060400191505060405180910390fd5b610511816103dd565b600160408051908101604052808381526020013373ffffffffffffffffffffffffffffffffffffffff16815250908060018154018082558091505090600182039060005260206000209060020201600090919290919091506000820151816000019080519060200190610585929190610654565b5060208201518160010160006101000a81548173ffffffffffffffffffffffffffffffffffffffff021916908373ffffffffffffffffffffffffffffffffffffffff16021790555050505050565b600080826040518082805190602001908083835b60208310151561060c57805182526020820191506020810190506020830392506105e7565b6001836020036101000a038019825116818451168082178552505050505050905001915050908152602001604051809103902060009054906101000a900460ff169050919050565b828054600181600116156101000203166002900490600052602060002090601f016020900481019282601f1061069557805160ff19168380011785556106c3565b828001600101855582156106c3579182015b828111156106c25782518255916020019190600101906106a7565b5b5090506106d091906106d4565b5090565b6106f691905b808211156106f25760008160009055506001016106da565b5090565b9056fea165627a7a723058206ec63ce9a9de0e80a642c951bd96d63141a748ef12d5326bae8d2004925a690d0029",
  "source": "pragma solidity >=0.4.21 <0.6.0;\n\n/// @title Researchain Paper contract\ncontract Papers {\n    \n    mapping (string => bool) Titles;\n    \n    // This represents a single paper\n    struct Paper {\n        string title;\n        address owner;\n    }\n    \n    Paper[] private papers;\n\n    function getPaper(uint _index) public view returns (string memory title, address owner) {\n        return (papers[_index].title, papers[_index].owner);\n    }\n    \n    function setTitle(string memory _title) public {\n        Titles[_title] = true;\n    }\n    \n    function titleExists(string memory _title) private returns (bool) {\n        return Titles[_title];\n    }\n    \n    function _createPaper(string memory _title) public {\n        require(!titleExists(_title), \"A paper with this title already exists, dude.\");\n        setTitle(_title);\n        papers.push(Paper(_title, msg.sender));\n    }\n}\n",
  "sourcePath": "/Users/florens/BLKCHN/Cardano-BLKCHN19/researchain/researchain-back/contracts/Papers.sol",
  "compiler": {
    "name": "solc",
    "version": "0.5.0+commit.1d4f565a.Emscripten.clang"
  },
  "schemaVersion": "3.0.9",
  "updatedAt": "2019-05-26T17:59:00.503Z",
  "devdoc": {
    "methods": {},
    "title": "Researchain Paper contract"
  },
  "userdoc": {
    "methods": {}
  }
}